{
  "_format": "hh-sol-artifact-1",
  "contractName": "PlayGame",
  "sourceName": "contracts/PlayGame.sol",
  "abi": [
    {
      "inputs": [
        {
          "internalType": "address",
          "name": "_token",
          "type": "address"
        }
      ],
      "stateMutability": "nonpayable",
      "type": "constructor"
    },
    {
      "inputs": [],
      "name": "ReentrancyGuardReentrantCall",
      "type": "error"
    },
    {
      "anonymous": false,
      "inputs": [
        {
          "indexed": true,
          "internalType": "uint256",
          "name": "matchId",
          "type": "uint256"
        },
        {
          "indexed": true,
          "internalType": "address",
          "name": "winner",
          "type": "address"
        },
        {
          "indexed": false,
          "internalType": "uint256",
          "name": "reward",
          "type": "uint256"
        }
      ],
      "name": "ResultCommitted",
      "type": "event"
    },
    {
      "anonymous": false,
      "inputs": [
        {
          "indexed": true,
          "internalType": "uint256",
          "name": "matchId",
          "type": "uint256"
        },
        {
          "indexed": true,
          "internalType": "address",
          "name": "player",
          "type": "address"
        },
        {
          "indexed": false,
          "internalType": "uint256",
          "name": "amount",
          "type": "uint256"
        }
      ],
      "name": "TokensStaked",
      "type": "event"
    },
    {
      "inputs": [
        {
          "internalType": "address",
          "name": "winner",
          "type": "address"
        }
      ],
      "name": "commitResult",
      "outputs": [],
      "stateMutability": "nonpayable",
      "type": "function"
    },
    {
      "inputs": [],
      "name": "gameToken",
      "outputs": [
        {
          "internalType": "contract GameToken",
          "name": "",
          "type": "address"
        }
      ],
      "stateMutability": "view",
      "type": "function"
    },
    {
      "inputs": [],
      "name": "matchCounter",
      "outputs": [
        {
          "internalType": "uint256",
          "name": "",
          "type": "uint256"
        }
      ],
      "stateMutability": "view",
      "type": "function"
    },
    {
      "inputs": [
        {
          "internalType": "uint256",
          "name": "",
          "type": "uint256"
        }
      ],
      "name": "matches",
      "outputs": [
        {
          "internalType": "address",
          "name": "player1",
          "type": "address"
        },
        {
          "internalType": "address",
          "name": "player2",
          "type": "address"
        },
        {
          "internalType": "uint256",
          "name": "stakeAmount",
          "type": "uint256"
        },
        {
          "internalType": "bool",
          "name": "isComplete",
          "type": "bool"
        }
      ],
      "stateMutability": "view",
      "type": "function"
    },
    {
      "inputs": [
        {
          "internalType": "address",
          "name": "player",
          "type": "address"
        },
        {
          "internalType": "uint256",
          "name": "amount",
          "type": "uint256"
        }
      ],
      "name": "stakeTokens",
      "outputs": [],
      "stateMutability": "nonpayable",
      "type": "function"
    }
  ],
  "bytecode": "0x60806040523480156200001157600080fd5b506040516200114b3803806200114b8339818101604052810190620000379190620000f1565b600160008190555080600160006101000a81548173ffffffffffffffffffffffffffffffffffffffff021916908373ffffffffffffffffffffffffffffffffffffffff1602179055505062000123565b600080fd5b600073ffffffffffffffffffffffffffffffffffffffff82169050919050565b6000620000b9826200008c565b9050919050565b620000cb81620000ac565b8114620000d757600080fd5b50565b600081519050620000eb81620000c0565b92915050565b6000602082840312156200010a576200010962000087565b5b60006200011a84828501620000da565b91505092915050565b61101880620001336000396000f3fe608060405234801561001057600080fd5b50600436106100575760003560e01c806301fd19511461005c5780634768d4ef1461007a57806379a83f5a146100ad578063a5cfef87146100c9578063c3dfdae6146100e5575b600080fd5b610064610103565b6040516100719190610918565b60405180910390f35b610094600480360381019061008f9190610964565b610109565b6040516100a494939291906109ed565b60405180910390f35b6100c760048036038101906100c29190610a5e565b610186565b005b6100e360048036038101906100de9190610a9e565b6105a3565b005b6100ed610889565b6040516100fa9190610b2a565b60405180910390f35b60025481565b60036020528060005260406000206000915090508060000160009054906101000a900473ffffffffffffffffffffffffffffffffffffffff16908060010160009054906101000a900473ffffffffffffffffffffffffffffffffffffffff16908060020154908060030160009054906101000a900460ff16905084565b61018e6108af565b600081116101d1576040517f08c379a00000000000000000000000000000000000000000000000000000000081526004016101c890610ba2565b60405180910390fd5b600160009054906101000a900473ffffffffffffffffffffffffffffffffffffffff1673ffffffffffffffffffffffffffffffffffffffff166323b872dd8330846040518463ffffffff1660e01b815260040161023093929190610bc2565b6020604051808303816000875af115801561024f573d6000803e3d6000fd5b505050506040513d601f19601f820116820180604052508101906102739190610c25565b6102b2576040517f08c379a00000000000000000000000000000000000000000000000000000000081526004016102a990610c9e565b60405180910390fd5b600073ffffffffffffffffffffffffffffffffffffffff1660036000600254815260200190815260200160002060000160009054906101000a900473ffffffffffffffffffffffffffffffffffffffff1673ffffffffffffffffffffffffffffffffffffffff16036103e8578160036000600254815260200190815260200160002060000160006101000a81548173ffffffffffffffffffffffffffffffffffffffff021916908373ffffffffffffffffffffffffffffffffffffffff16021790555080600360006002548152602001908152602001600020600201819055508173ffffffffffffffffffffffffffffffffffffffff166002547f3c2905e5cda90fbc3e1296ec4bc49130e39b6203bb1d13b4a855ced4d920e16f836040516103db9190610918565b60405180910390a3610597565b600073ffffffffffffffffffffffffffffffffffffffff1660036000600254815260200190815260200160002060010160009054906101000a900473ffffffffffffffffffffffffffffffffffffffff1673ffffffffffffffffffffffffffffffffffffffff160361055b578060036000600254815260200190815260200160002060020154146104ae576040517f08c379a00000000000000000000000000000000000000000000000000000000081526004016104a590610d0a565b60405180910390fd5b8160036000600254815260200190815260200160002060010160006101000a81548173ffffffffffffffffffffffffffffffffffffffff021916908373ffffffffffffffffffffffffffffffffffffffff1602179055508173ffffffffffffffffffffffffffffffffffffffff166002547f3c2905e5cda90fbc3e1296ec4bc49130e39b6203bb1d13b4a855ced4d920e16f8360405161054e9190610918565b60405180910390a3610596565b6040517f08c379a000000000000000000000000000000000000000000000000000000000815260040161058d90610d76565b60405180910390fd5b5b61059f6108f5565b5050565b6105ab6108af565b600060036000600254815260200190815260200160002090508060030160009054906101000a900460ff1615610616576040517f08c379a000000000000000000000000000000000000000000000000000000000815260040161060d90610de2565b60405180910390fd5b8060000160009054906101000a900473ffffffffffffffffffffffffffffffffffffffff1673ffffffffffffffffffffffffffffffffffffffff168273ffffffffffffffffffffffffffffffffffffffff1614806106c357508060010160009054906101000a900473ffffffffffffffffffffffffffffffffffffffff1673ffffffffffffffffffffffffffffffffffffffff168273ffffffffffffffffffffffffffffffffffffffff16145b610702576040517f08c379a00000000000000000000000000000000000000000000000000000000081526004016106f990610e74565b60405180910390fd5b6000600282600201546107159190610ec3565b9050600160009054906101000a900473ffffffffffffffffffffffffffffffffffffffff1673ffffffffffffffffffffffffffffffffffffffff1663a9059cbb84836040518363ffffffff1660e01b8152600401610774929190610f05565b6020604051808303816000875af1158015610793573d6000803e3d6000fd5b505050506040513d601f19601f820116820180604052508101906107b79190610c25565b6107f6576040517f08c379a00000000000000000000000000000000000000000000000000000000081526004016107ed90610f7a565b60405180910390fd5b60018260030160006101000a81548160ff0219169083151502179055508273ffffffffffffffffffffffffffffffffffffffff166002547f44eab6f56f821bb7018cb096acbd203dc83a889f6d0315af46ce6a186576d9298360405161085c9190610918565b60405180910390a36002600081548092919061087790610f9a565b919050555050506108866108f5565b50565b600160009054906101000a900473ffffffffffffffffffffffffffffffffffffffff1681565b6002600054036108eb576040517f3ee5aeb500000000000000000000000000000000000000000000000000000000815260040160405180910390fd5b6002600081905550565b6001600081905550565b6000819050919050565b610912816108ff565b82525050565b600060208201905061092d6000830184610909565b92915050565b600080fd5b610941816108ff565b811461094c57600080fd5b50565b60008135905061095e81610938565b92915050565b60006020828403121561097a57610979610933565b5b60006109888482850161094f565b91505092915050565b600073ffffffffffffffffffffffffffffffffffffffff82169050919050565b60006109bc82610991565b9050919050565b6109cc816109b1565b82525050565b60008115159050919050565b6109e7816109d2565b82525050565b6000608082019050610a0260008301876109c3565b610a0f60208301866109c3565b610a1c6040830185610909565b610a2960608301846109de565b95945050505050565b610a3b816109b1565b8114610a4657600080fd5b50565b600081359050610a5881610a32565b92915050565b60008060408385031215610a7557610a74610933565b5b6000610a8385828601610a49565b9250506020610a948582860161094f565b9150509250929050565b600060208284031215610ab457610ab3610933565b5b6000610ac284828501610a49565b91505092915050565b6000819050919050565b6000610af0610aeb610ae684610991565b610acb565b610991565b9050919050565b6000610b0282610ad5565b9050919050565b6000610b1482610af7565b9050919050565b610b2481610b09565b82525050565b6000602082019050610b3f6000830184610b1b565b92915050565b600082825260208201905092915050565b7f5374616b65206d757374206265203e2030000000000000000000000000000000600082015250565b6000610b8c601183610b45565b9150610b9782610b56565b602082019050919050565b60006020820190508181036000830152610bbb81610b7f565b9050919050565b6000606082019050610bd760008301866109c3565b610be460208301856109c3565b610bf16040830184610909565b949350505050565b610c02816109d2565b8114610c0d57600080fd5b50565b600081519050610c1f81610bf9565b92915050565b600060208284031215610c3b57610c3a610933565b5b6000610c4984828501610c10565b91505092915050565b7f546f6b656e207472616e73666572206661696c65640000000000000000000000600082015250565b6000610c88601583610b45565b9150610c9382610c52565b602082019050919050565b60006020820190508181036000830152610cb781610c7b565b9050919050565b7f5374616b65206d757374206d6174636800000000000000000000000000000000600082015250565b6000610cf4601083610b45565b9150610cff82610cbe565b602082019050919050565b60006020820190508181036000830152610d2381610ce7565b9050919050565b7f4d6174636820616c72656164792066756c6c0000000000000000000000000000600082015250565b6000610d60601283610b45565b9150610d6b82610d2a565b602082019050919050565b60006020820190508181036000830152610d8f81610d53565b9050919050565b7f526573756c7420616c726561647920636f6d6d69747465640000000000000000600082015250565b6000610dcc601883610b45565b9150610dd782610d96565b602082019050919050565b60006020820190508181036000830152610dfb81610dbf565b9050919050565b7f57696e6e6572206d757374206265206f6e65206f662074686520706c6179657260008201527f7300000000000000000000000000000000000000000000000000000000000000602082015250565b6000610e5e602183610b45565b9150610e6982610e02565b604082019050919050565b60006020820190508181036000830152610e8d81610e51565b9050919050565b7f4e487b7100000000000000000000000000000000000000000000000000000000600052601160045260246000fd5b6000610ece826108ff565b9150610ed9836108ff565b9250828202610ee7816108ff565b91508282048414831517610efe57610efd610e94565b5b5092915050565b6000604082019050610f1a60008301856109c3565b610f276020830184610909565b9392505050565b7f526577617264207472616e73666572206661696c656400000000000000000000600082015250565b6000610f64601683610b45565b9150610f6f82610f2e565b602082019050919050565b60006020820190508181036000830152610f9381610f57565b9050919050565b6000610fa5826108ff565b91507fffffffffffffffffffffffffffffffffffffffffffffffffffffffffffffffff8203610fd757610fd6610e94565b5b60018201905091905056fea264697066735822122075a9eb6757e6ddf744570cb00523a9382210c996ce38fd79aa8eb05994442cf664736f6c63430008140033",
  "linkReferences": {},
  "deployedLinkReferences": {}
}