{
  "_format": "hh-sol-artifact-1",
  "contractName": "TokenStore",
  "sourceName": "contracts/TokenStore.sol",
  "abi": [
    {
      "inputs": [
        {
          "internalType": "address",
          "name": "_token",
          "type": "address"
        }
      ],
      "stateMutability": "nonpayable",
      "type": "constructor"
    },
    {
      "inputs": [
        {
          "internalType": "address",
          "name": "owner",
          "type": "address"
        }
      ],
      "name": "OwnableInvalidOwner",
      "type": "error"
    },
    {
      "inputs": [
        {
          "internalType": "address",
          "name": "account",
          "type": "address"
        }
      ],
      "name": "OwnableUnauthorizedAccount",
      "type": "error"
    },
    {
      "anonymous": false,
      "inputs": [
        {
          "indexed": true,
          "internalType": "address",
          "name": "previousOwner",
          "type": "address"
        },
        {
          "indexed": true,
          "internalType": "address",
          "name": "newOwner",
          "type": "address"
        }
      ],
      "name": "OwnershipTransferred",
      "type": "event"
    },
    {
      "anonymous": false,
      "inputs": [
        {
          "indexed": true,
          "internalType": "address",
          "name": "buyer",
          "type": "address"
        },
        {
          "indexed": false,
          "internalType": "uint256",
          "name": "amount",
          "type": "uint256"
        }
      ],
      "name": "TokensPurchased",
      "type": "event"
    },
    {
      "inputs": [
        {
          "internalType": "address",
          "name": "to",
          "type": "address"
        },
        {
          "internalType": "uint256",
          "name": "amount",
          "type": "uint256"
        }
      ],
      "name": "buyTokens",
      "outputs": [],
      "stateMutability": "payable",
      "type": "function"
    },
    {
      "inputs": [],
      "name": "gameToken",
      "outputs": [
        {
          "internalType": "contract GameToken",
          "name": "",
          "type": "address"
        }
      ],
      "stateMutability": "view",
      "type": "function"
    },
    {
      "inputs": [],
      "name": "owner",
      "outputs": [
        {
          "internalType": "address",
          "name": "",
          "type": "address"
        }
      ],
      "stateMutability": "view",
      "type": "function"
    },
    {
      "inputs": [],
      "name": "renounceOwnership",
      "outputs": [],
      "stateMutability": "nonpayable",
      "type": "function"
    },
    {
      "inputs": [
        {
          "internalType": "uint256",
          "name": "newPrice",
          "type": "uint256"
        }
      ],
      "name": "setTokenPrice",
      "outputs": [],
      "stateMutability": "nonpayable",
      "type": "function"
    },
    {
      "inputs": [],
      "name": "tokenPrice",
      "outputs": [
        {
          "internalType": "uint256",
          "name": "",
          "type": "uint256"
        }
      ],
      "stateMutability": "view",
      "type": "function"
    },
    {
      "inputs": [
        {
          "internalType": "address",
          "name": "newOwner",
          "type": "address"
        }
      ],
      "name": "transferOwnership",
      "outputs": [],
      "stateMutability": "nonpayable",
      "type": "function"
    },
    {
      "inputs": [
        {
          "internalType": "address payable",
          "name": "to",
          "type": "address"
        }
      ],
      "name": "withdraw",
      "outputs": [],
      "stateMutability": "nonpayable",
      "type": "function"
    }
  ],
  "bytecode": "0x608060405266038d7ea4c680006002553480156200001c57600080fd5b506040516200108638038062001086833981810160405281019062000042919062000240565b33600073ffffffffffffffffffffffffffffffffffffffff168173ffffffffffffffffffffffffffffffffffffffff1603620000b85760006040517f1e4fbdf7000000000000000000000000000000000000000000000000000000008152600401620000af919062000283565b60405180910390fd5b620000c9816200011260201b60201c565b5080600160006101000a81548173ffffffffffffffffffffffffffffffffffffffff021916908373ffffffffffffffffffffffffffffffffffffffff16021790555050620002a0565b60008060009054906101000a900473ffffffffffffffffffffffffffffffffffffffff169050816000806101000a81548173ffffffffffffffffffffffffffffffffffffffff021916908373ffffffffffffffffffffffffffffffffffffffff1602179055508173ffffffffffffffffffffffffffffffffffffffff168173ffffffffffffffffffffffffffffffffffffffff167f8be0079c531659141344cd1fd0a4f28419497f9722a3daafe3b4186f6b6457e060405160405180910390a35050565b600080fd5b600073ffffffffffffffffffffffffffffffffffffffff82169050919050565b60006200020882620001db565b9050919050565b6200021a81620001fb565b81146200022657600080fd5b50565b6000815190506200023a816200020f565b92915050565b600060208284031215620002595762000258620001d6565b5b6000620002698482850162000229565b91505092915050565b6200027d81620001fb565b82525050565b60006020820190506200029a600083018462000272565b92915050565b610dd680620002b06000396000f3fe60806040526004361061007b5760003560e01c80637ff9b5961161004e5780637ff9b596146101055780638da5cb5b14610130578063c3dfdae61461015b578063f2fde38b146101865761007b565b80630752881a1461008057806351cff8d91461009c5780636a61e5fc146100c5578063715018a6146100ee575b600080fd5b61009a6004803603810190610095919061078e565b6101af565b005b3480156100a857600080fd5b506100c360048036038101906100be919061080c565b6103c9565b005b3480156100d157600080fd5b506100ec60048036038101906100e79190610839565b61045e565b005b3480156100fa57600080fd5b506101036104b3565b005b34801561011157600080fd5b5061011a6104c7565b6040516101279190610875565b60405180910390f35b34801561013c57600080fd5b506101456104cd565b604051610152919061089f565b60405180910390f35b34801561016757600080fd5b506101706104f6565b60405161017d9190610919565b60405180910390f35b34801561019257600080fd5b506101ad60048036038101906101a89190610934565b61051c565b005b600081116101f2576040517f08c379a00000000000000000000000000000000000000000000000000000000081526004016101e9906109be565b60405180910390fd5b600254816102009190610a0d565b3414610241576040517f08c379a000000000000000000000000000000000000000000000000000000000815260040161023890610a9b565b60405180910390fd5b600160009054906101000a900473ffffffffffffffffffffffffffffffffffffffff1673ffffffffffffffffffffffffffffffffffffffff166340c10f1983600160009054906101000a900473ffffffffffffffffffffffffffffffffffffffff1673ffffffffffffffffffffffffffffffffffffffff1663313ce5676040518163ffffffff1660e01b8152600401602060405180830381865afa1580156102ed573d6000803e3d6000fd5b505050506040513d601f19601f820116820180604052508101906103119190610af4565b600a61031d9190610c54565b846103289190610a0d565b6040518363ffffffff1660e01b8152600401610345929190610c9f565b600060405180830381600087803b15801561035f57600080fd5b505af1158015610373573d6000803e3d6000fd5b505050508173ffffffffffffffffffffffffffffffffffffffff167f8f28852646c20cc973d3a8218f7eefed58c25c909f78f0265af4818c3d4dc271826040516103bd9190610875565b60405180910390a25050565b6103d16105a2565b60004711610414576040517f08c379a000000000000000000000000000000000000000000000000000000000815260040161040b90610d14565b60405180910390fd5b8073ffffffffffffffffffffffffffffffffffffffff166108fc479081150290604051600060405180830381858888f1935050505015801561045a573d6000803e3d6000fd5b5050565b6104666105a2565b600081116104a9576040517f08c379a00000000000000000000000000000000000000000000000000000000081526004016104a090610d80565b60405180910390fd5b8060028190555050565b6104bb6105a2565b6104c56000610629565b565b60025481565b60008060009054906101000a900473ffffffffffffffffffffffffffffffffffffffff16905090565b600160009054906101000a900473ffffffffffffffffffffffffffffffffffffffff1681565b6105246105a2565b600073ffffffffffffffffffffffffffffffffffffffff168173ffffffffffffffffffffffffffffffffffffffff16036105965760006040517f1e4fbdf700000000000000000000000000000000000000000000000000000000815260040161058d919061089f565b60405180910390fd5b61059f81610629565b50565b6105aa6106ed565b73ffffffffffffffffffffffffffffffffffffffff166105c86104cd565b73ffffffffffffffffffffffffffffffffffffffff1614610627576105eb6106ed565b6040517f118cdaa700000000000000000000000000000000000000000000000000000000815260040161061e919061089f565b60405180910390fd5b565b60008060009054906101000a900473ffffffffffffffffffffffffffffffffffffffff169050816000806101000a81548173ffffffffffffffffffffffffffffffffffffffff021916908373ffffffffffffffffffffffffffffffffffffffff1602179055508173ffffffffffffffffffffffffffffffffffffffff168173ffffffffffffffffffffffffffffffffffffffff167f8be0079c531659141344cd1fd0a4f28419497f9722a3daafe3b4186f6b6457e060405160405180910390a35050565b600033905090565b600080fd5b600073ffffffffffffffffffffffffffffffffffffffff82169050919050565b6000610725826106fa565b9050919050565b6107358161071a565b811461074057600080fd5b50565b6000813590506107528161072c565b92915050565b6000819050919050565b61076b81610758565b811461077657600080fd5b50565b60008135905061078881610762565b92915050565b600080604083850312156107a5576107a46106f5565b5b60006107b385828601610743565b92505060206107c485828601610779565b9150509250929050565b60006107d9826106fa565b9050919050565b6107e9816107ce565b81146107f457600080fd5b50565b600081359050610806816107e0565b92915050565b600060208284031215610822576108216106f5565b5b6000610830848285016107f7565b91505092915050565b60006020828403121561084f5761084e6106f5565b5b600061085d84828501610779565b91505092915050565b61086f81610758565b82525050565b600060208201905061088a6000830184610866565b92915050565b6108998161071a565b82525050565b60006020820190506108b46000830184610890565b92915050565b6000819050919050565b60006108df6108da6108d5846106fa565b6108ba565b6106fa565b9050919050565b60006108f1826108c4565b9050919050565b6000610903826108e6565b9050919050565b610913816108f8565b82525050565b600060208201905061092e600083018461090a565b92915050565b60006020828403121561094a576109496106f5565b5b600061095884828501610743565b91505092915050565b600082825260208201905092915050565b7f416d6f756e74206d7573742062652067726561746572207468616e2030000000600082015250565b60006109a8601d83610961565b91506109b382610972565b602082019050919050565b600060208201905081810360008301526109d78161099b565b9050919050565b7f4e487b7100000000000000000000000000000000000000000000000000000000600052601160045260246000fd5b6000610a1882610758565b9150610a2383610758565b9250828202610a3181610758565b91508282048414831517610a4857610a476109de565b5b5092915050565b7f496e636f7272656374204554482073656e740000000000000000000000000000600082015250565b6000610a85601283610961565b9150610a9082610a4f565b602082019050919050565b60006020820190508181036000830152610ab481610a78565b9050919050565b600060ff82169050919050565b610ad181610abb565b8114610adc57600080fd5b50565b600081519050610aee81610ac8565b92915050565b600060208284031215610b0a57610b096106f5565b5b6000610b1884828501610adf565b91505092915050565b60008160011c9050919050565b6000808291508390505b6001851115610b7857808604811115610b5457610b536109de565b5b6001851615610b635780820291505b8081029050610b7185610b21565b9450610b38565b94509492505050565b600082610b915760019050610c4d565b81610b9f5760009050610c4d565b8160018114610bb55760028114610bbf57610bee565b6001915050610c4d565b60ff841115610bd157610bd06109de565b5b8360020a915084821115610be857610be76109de565b5b50610c4d565b5060208310610133831016604e8410600b8410161715610c235782820a905083811115610c1e57610c1d6109de565b5b610c4d565b610c308484846001610b2e565b92509050818404811115610c4757610c466109de565b5b81810290505b9392505050565b6000610c5f82610758565b9150610c6a83610abb565b9250610c977fffffffffffffffffffffffffffffffffffffffffffffffffffffffffffffffff8484610b81565b905092915050565b6000604082019050610cb46000830185610890565b610cc16020830184610866565b9392505050565b7f4e6f2045544820746f2077697468647261770000000000000000000000000000600082015250565b6000610cfe601283610961565b9150610d0982610cc8565b602082019050919050565b60006020820190508181036000830152610d2d81610cf1565b9050919050565b7f5072696365206d7573742062652067726561746572207468616e203000000000600082015250565b6000610d6a601c83610961565b9150610d7582610d34565b602082019050919050565b60006020820190508181036000830152610d9981610d5d565b905091905056fea2646970667358221220f987f5707fdbb487f310a0803c0d5c69e0c69c4a719222d76abba4ba3ddb959a64736f6c63430008140033",
  "linkReferences": {},
  "deployedLinkReferences": {}
}